:020000040000FA
:10000000000002285530AE000130AF008030000003
:10001000000034210000000083120000B1002F080E
:10002000B0005730B2000130B30083120000300836
:10003000B4003108B500FF30B007031CB103350828
:10004000340403199A2804303207B400B501B50D01
:100050003308B5073408AE003508AF008030000023
:10006000000034210000000083120000B7002F08B8
:10007000B6003208AE003308AF0080300000000048
:1000800034210000000083120000B900B5002F08E1
:10009000B400B80002303207B400B501B50D330822
:1000A000B5073408AE003508AF008030000000000E
:1000B00034210000000083120000B500BB002F08AF
:1000C000BA00B400831200003608BA003708BB003B
:1000D000FF30B607031CB7033B083A040319932803
:1000E0003808AE003908AF00803000000000212140
:1000F0000000000083120000BA00340883120313CA
:100100008400831383120000351883173A08831282
:100110000313800083120000B80A0319B90AB40A55
:100120000319B50A6228063083120000B2070318CB
:10013000B30A1528000000009E2808000830831626
:100140008500C83083128505083083169F004A0851
:10015000803E803E031DAE28063049020318B428B5
:10016000C90A0319CA0AB7280130C900CA01BC016B
:1001700083128519BC0A3C08013A031DD128CC0A18
:10018000CD014C084F020318A7284B08031DCE28A9
:100190004908AF004A08E7200130CB00CC01CE016E
:1001A000A728CD0ACC014D084F020318A7284E08F6
:1001B000031DE3284708AF0048088721C830831291
:1001C00085050130CE00CB01CD01A7280800BE0077
:1001D0002F08BD003E08803E803E031DF1280130FF
:1001E0003D02031C20293E08803E803E031DFA2864
:1001F00007303D0203182029BD0301308A00043076
:100200003D0703188A0A82000A290D29102914299A
:1002100018291C29831205142029831285142029EA
:100220000330831285042029073083128504202996
:100230001730831285042029373083128504202942
:100240000800003A03192829803A03192F2900349D
:100250002E08840083132F188317000808002F0826
:100260008A002E0882000800003A03193C29803ACF
:1002700003194629AF0100342E08840083132F1878
:1002800083170008AF00840A00080800000000007F
:100290002F21AD00AE0FAF03AF0A000000002F21E9
:1002A000AC002D08AF002C08080008340034AE3430
:1002B00001344734003402340034B23401344B3456
:1002C000003401340034B33401344C34003401348C
:1002D0000034B43401344D34003401340034B534C6
:1002E00001344E34003401340034B63401344F3418
:1002F000003401340034B034013449340034023461
:100300000034B73401345034003401340034C000B8
:100310002F08BF00C101C20140084202031D9229FB
:100320003F0841020318AD29FB30C3000430C4006C
:10033000FF304307C500FF30C60044080318440FD0
:10034000C6074508C3004608C40046084504031D07
:100350009829C10A0319C20A8C290800C83400343C
:10036000003400340034003400340034F4340034F9
:02400E00D73F9A
:00000001FF
